S015000046696E616C5F50726F6A6563742E73726563EF
S11300000C9446000C9465000C9465000C946500F7
S11300100C942A0C0C942A0C0C942A0C0C942A0C84
S11300200C9465000C9465000C9465000C942D0BE5
S11300300C9465000C9465000C9465000C946500A8
S11300400C9465000C9465000C9465000C94650098
S11300500C94E4080C94D30A0C9465000C94650089
S11300600C9465000C9465000C9465000C94650078
S11300700C940F090C94FC0A0C9465000C94650014
S11300800C9465000C9465000C94650011241FBE4B
S1130090CFEFD0E4DEBFCDBF11E0A0E0B1E0ECEAE9
S11300A0F4E200E00BBF02C007900D92AA33B1073F
S11300B0D9F721E0AAE3B1E001C01D92A53CB20743
S11300C0E1F70E94B3010C9454120C940000FF92C7
S11300D00F931F93CF93DF93F82EC8E2D1E000E390
S11300E011E0209177013091780121153105E1F17A
S11300F0FF2019F02150310902C02F5F3F4F309388
S113010078012093770160E080E00E94A903DF93E7
S1130110CF930E947E0F0E94270DBC01882777FD94
S11301208095982F0E94860361E080E00E94A903D5
S1130130809178018F93809177018F931F930F9310
S11301400E947E0F8091770190917801BC010E94FA
S1130150330681E090E00E94750B0F900F900F9092
S11301600F900F900F90BDCFDF91CF911F910F9102
S1130170FF900895DF92EF92FF920F931F93CF9316
S1130180DF93D82E882321F090E6E92EF12C04C0C9
S113019080EAE82EFF24FA94C8E2D1E000E311E0FB
S11301A020917701309178012E153F05E1F1DD2092
S11301B019F02F5F3F4F02C021503109309378016D
S11301C02093770160E080E00E94A903DF93CF933E
S11301D00E947E0F0E94270DBC01882777FD809521
S11301E0982F0E94860361E080E00E94A903809119
S11301F078018F93809177018F931F930F930E94BF
S11302007E0F8091770190917801BC010E943306A2
S113021081E090E00E94750B0F900F900F900F906B
S11302200F900F90BDCFDF91CF911F910F91FF9051
S1130230EF90DF90089580E00E94BA000E94310D93
S1130240AA2797FDA095BA2F809373019093740108
S1130250A0937501B093760180917301909174011C
S1130260A0917501B091760140912601509127012A
S113027080569F4FAF4FBF4F662757FD6095762F2F
S113028084179507A607B7072CF481E090E00E9435
S1130290750BD4CF80E00E94670081E080937901E0
S11302A0089581E00E94BA000E94310DAA2797FDAB
S11302B0A095BA2F8093730190937401A093750154
S11302C0B09376018091730190917401A0917501AE
S11302D0B091760188389105A105B1052CF081E033
S11302E090E00E94750BE0CF81E00E9467001092BD
S11302F07901089540E855E260E070E081E00E94F1
S1130300150A61E081E00E94D00940E26BE771E0E8
S113031081E00C94E1088C3449F0853529F0883467
S113032039F45998519A08950C9451010C941B0175
S1130330089581E00E94FA06E0917A018E1791F007
S1130340F0E0E558FE4F808190E00E948B0180919F
S11303507A018F3119F410927A01EBCF8F5F809379
S11303607A01E7CF08950E9403050E947A010E9452
S1130370290321E040E061E080E00E941D0DC8E215
S1130380D1E000E311E00E94310DAA2797FDA0956A
S1130390BA2F8093730190937401A0937501B09365
S11303A0760160E080E00E94A903DF93CF930E946E
S11303B07E0F609173017091740180917501909129
S11303C076010E94860361E080E00E94A903809187
S11303D078018F93809177018F931F930F930E94DD
S11303E07E0F8CE20E94F7060F900F900F900F90F3
S11303F00F900F90803219F40E941B0104C08430C6
S113040011F40E9451010E94D00A0E949901BBCFAD
S113041080E090E0089581E090E06F9364E06A9555
S1130420F1F76F910197C9F708950F931F93CF9335
S1130430DF9317B13D982898299AC0E0D0E00E9434
S11304400B022A9A0E940B0206B12A980E940B0200
S11304502A9A0E940B022A98249605FF10C09E0136
S113046040E050E080913E0190913F01A091400115
S1130470B0914101281739074A075B0700F39E0131
S113048040E050E080913E0190913F01A0914001F5
S1130490B0914101281739074A075B0728F082E326
S11304A090E0A0E0B0E004C080E395E7A0E0B0E015
S11304B080933E0190933F01A0934001B09341018A
S11304C017B9DF91CF911F910F91089528B190E052
S11304D08F709070880F991F880F991F237C282B89
S11304E028B92A9A0E940B022A980E940B020895A6
S11304F0A2E0B0E0EEE7F2E00C94D30D182F4A83AB
S113050069830E94F3020E941502F7B008B129988A
S113051069814A81662311F0289A01C0289887B11D
S11305208C6387B9413029F0812F82958F700E94A6
S11305306602812F8F700E946602F7B808B922966E
S1130540E5E00C94EF0D60E042E00E94780208952B
S113055061E042E00E947802089560E041E00E9478
S1130560780208953D98459A80E395E7A0E0B0E0CD
S113057080933E0190933F01A0934001B0934101C9
S1130580209A219A229A8EE190E00E94750B83E0D2
S11305900E94AD0286E090E00E94750B83E00E9409
S11305A0AD0282E090E00E94750B83E00E94AD02F0
S11305B082E090E00E94750B82E00E94AD0282E02E
S11305C090E00E94750B88E20E94A30288E00E94DA
S11305D0A30281E00E94A30286E00E94A3028CE0B1
S11305E00E94A302089580914201882329F481E0A6
S11305F0809342010E94B202089581E00E94A30206
S113060080913A0190913B01009711F1A0E0B0E292
S113061008C0E0913A01F0913B01E20FF31FB0836F
S1130620AF5F2A2F30E08091000190E00197609144
S1130630010170E0869FA001879F500D969F500D89
S11306401124241735072CF310923D0110923C011C
S113065008950E94FD020895AAE0B0E0E2E3F3E009
S11306600C94CE0D9B01AC011AE06AE0C62ED12C8D
S1130670E12CF12C5E010894A11CB11C022FCA01CB
S1130680B901A70196010E94990D1150F501E10FDE
S1130690F11D005D922F990F892F880F880F890F04
S11306A0081B0083211531054105510539F708C0A0
S11306B0F601E10FF11D80810E94A8021F5F04C0B2
S11306C06E010894C11CD11C1A3090F32A96EAE0FA
S11306D00C94EA0DEF92FF920F931F937B018C0110
S11306E097FF0BC010950095F094E094E11CF11C69
S11306F0011D111D8DE20E94A802C801B7010E94CC
S11307002C031F910F91FF90EF9008950E946A03AC
S11307100895A5E0B0E0EFE8F3E00C94D50D182FB0
S113072080E8898380EC8A8384E98B8384ED8C83DD
S1130730FE01E60FF11D8181810F6D830E94A302EA
S113074010933D016D8160933C012596E3E00C9488
S1130750F10D0E9489030895A0E0B0E0E2EBF3E01C
S11307600C94D00DD82E80913A0190913B010097C2
S113077009F4FAC02D2D2A3009F443C02830C9F4F5
S113078080913D01815080933D018F3F51F48091D0
S11307903C01815080933C01809101018150809300
S11307A03D0180913C018F3F09F0D8C010923C017B
S11307B0D3C08D2D0E94A80280913C018823B9F0FA
S11307C090E001974091010150E0849F9001859F42
S11307D0300D949F300D112480913D01E0913A0138
S11307E0F0913B01E20FF31FE80FF11DD0828091DD
S11307F03D018F5F80933D0190910101891709F0BC
S1130800B3C040913C01242F30E08091000190E07E
S113081001972817390709F09CC0C0E0D0E041C017
S113082080E06C2F0E948903CC248E010F5F1F4F40
S113083033C0EC2CFF2430E0C29FC001C39F900D55
S1130840D29F900D1124E0913A01F0913B01EE0DFD
S1130850FF1DE80FF91F80810E94A80280913A01D0
S113086090913B012091010130E0C29FF001C39FB0
S1130870F00DD29FF00D11248E0D9F1DE80FF91F6E
S1130880029FD001039FB00D129FB00D1124A80F39
S1130890B91F8C918083C39420910101C21648F240
S11308A0E80160910001862F90E00297C817D907EC
S11308B00CF4B6CF6230E0F1625080E00E9489030C
S11308C000E010E231C0C02FD0E08091000190E040
S11308D0029750E0849F9001859F300D949F300DC6
S11308E01124E0913A01F0913B01EC0FFD1FE20F5E
S11308F0F31F80810E94A8028091000190E002977A
S11309004091010150E0849F9001859F300D949F98
S1130910300D1124E0913A01F0913B01EC0FFD1FE1
S1130920E20FF31F10830F5F40910101041758F287
S113093060910001615080E00E94890310E004C0CE
S113094080E20E94A8021F5F809101011817C0F382
S113095003C04F5F40933C0110923D0180913D01E3
S113096060913C010E9489032D2D332727FD30958A
S1130970C901CDB7DEB7E8E00C94EC0D80913A01E3
S113098090913B01009711F00E94A40E2091000168
S113099030E0215030408091010190E0AC01249F6F
S11309A0C001259F900D349F900D11240E940C0EC0
S11309B090933B0180933A01009721F1A0E0B0E2CB
S11309C008C0E0913A01F0913B01E20FF31FB083BC
S11309D0AF5F2A2F30E08091000190E00197609191
S11309E0010170E0869FA001879F500D969F500DD6
S11309F01124241735072CF38CEA93E068E072E0A5
S1130A000E94330F08950E94BE040895FC011182D0
S1130A10108213821282158214821682683068F45E
S1130A2089E290E0918380838BE290E093838283D8
S1130A308AE290E09583848323C0603180F483E26A
S1130A4090E09183808385E290E09383828384E2C3
S1130A5090E09583848370E06850704011C06831E1
S1130A60C0F486E290E09183808388E290E09383EF
S1130A70828387E290E09583848370E060517040C4
S1130A8081E090E002C0880F991F6A95E2F786839F
S1130A9008956032C0F480E290E09183808382E222
S1130AA090E09383828381E290E0958384832FE1B5
S1130AB030E0261B310981E090E002C0880F991FC5
S1130AC02A95E2F786830895FC01A481B581868185
S1130AD0662321F09C91982B9C9308959C9180957A
S1130AE089238C930895FC016F3F31F4A281B38173
S1130AF08C91968189270CC0A281B381868166235B
S1130B0021F09C91982B9C9308959C918095892326
S1130B108C930895A7E0B0E0E0E9F5E00C94D30DE0
S1130B20282FF62E8E010F5F1F4FC801622F0E94DF
S1130B300605C8016F2D0E947305C80161E00E947B
S1130B4064052796E5E00C94EF0D83E08093B000F4
S1130B5082E08093B100E4EBF0E010828081809326
S1130B60B30087E160E00E948A0586E160E00E94AC
S1130B708A0587E060E00E948A0586E060E00E94C2
S1130B808A05089580914301882329F481E08093A4
S1130B9043010E94A5050895CF93DF93EC010E94C1
S1130BA0C205D7FF05C0D095C195DF4F91E001C0C4
S1130BB090E0CF3FD10519F014F0CFEFD0E0C0930F
S1130BC0B300209731F48091B0008F778093B00008
S1130BD00EC08091B00080688093B000992319F012
S1130BE087E161E002C087E160E00E948A05DF914D
S1130BF0CF910895CF93DF93EC010E94C205D7FFF4
S1130C0005C0D095C195DF4F91E001C090E0CF3F82
S1130C10D10519F014F0CFEFD0E0C093B4002097C1
S1130C2031F48091B0008F7D8093B0000EC080912C
S1130C30B00080628093B000992319F086E161E0EE
S1130C4002C086E160E00E948A05DF91CF91089599
S1130C50CF93DF93EB010E94CC05CE010E94FA05ED
S1130C60DF91CF9108950E942806089587B1837D6E
S1130C7087B988B18C6288B985E090E06F9364E0AD
S1130C806A95F1F76F910197C9F70895809144012E
S1130C90882329F481E0809344010E943606089554
S1130CA0BF92CF92DF92EF92FF920F931F93B82ED1
S1130CB0C6B0DC2CD0940E94AF0B7B018C010E9447
S1130CC0460680915001813021F1813038F0823024
S1130CD009F445C0833009F081C063C02B2D30E096
S1130CE04D2D50E040955095242335232115310591
S1130CF009F474C0CB20C0924B01E0924C01F092F5
S1130D004D0100934E0110934F0181E080935001F7
S1130D1065C080914C0190914D01A0914E01B0911C
S1130D204F01E81AF90A0A0B1B0B8FE0E816F104CD
S1130D300105110508F452C040914B018D2D90E03E
S1130D4080959095242F30E082239323009731F1EE
S1130D5082E080935001C422C0924B013FC0409175
S1130D604B018D2D842371F093E090935001809377
S1130D704B01E0924C01F0924D0100934E0110930F
S1130D804F012CC050E08B2D90E02D2D30E02095AC
S1130D903095822393234817590701F1109250018B
S1130DA01DC080914C0190914D01A0914E01B091D4
S1130DB04F01E81AF90A0A0B1B0B8FE0E816F1043D
S1130DC00105110558F080914B018D2119F0109205
S1130DD0500105C092E09093500101C080E01F9142
S1130DE00F91FF90EF90DF90CF90BF9008950E94F5
S1130DF050060895282F30E0F901EE0FFF1F43E05D
S1130E00220F331F4A95E1F7E20FF31FEE5FFE4F07
S1130E1082810895282F30E0F901EE0FFF1FB3E01F
S1130E20220F331FBA95E1F7E20FF31FEE5FFE4F77
S1130E30408551854115510509F452C0282F30E0F1
S1130E40F901EE0FFF1F73E0220F331F7A95E1F7CC
S1130E50E20FF31FEE5FFE4F7281282F30E0F9019D
S1130E60EE0FFF1FB3E0220F331FBA95E1F7E20F35
S1130E70F31FEE5FFE4F9481791790F5282F30E031
S1130E80F901EE0FFF1F73E0220F331F7A95E1F78C
S1130E90E20FF31FEE5FFE4F9281490F511DFA01DD
S1130EA06083282F30E0F901EE0FFF1F53E0220F7B
S1130EB0331F5A95E1F7E20FF31FEE5FFE4F928165
S1130EC09F5F282F30E0F901EE0FFF1FB3E0220FE0
S1130ED0331FBA95E1F7E20FF31FEE5FFE4F9283E3
S1130EE0282F30E0F901EE0FFF1F73E0220F331FAC
S1130EF07A95E1F7E20FF31FEE5FFE4F4281282F50
S1130F0030E0F901EE0FFF1F53E0220F331F5A9513
S1130F10E1F7E20FF31FEE5FFE4F9481491701F5ED
S1130F20282F30E0F901EE0FFF1F93E0220F331F4B
S1130F309A95E1F7E20FF31FEE5FFE4F9581992337
S1130F4079F0282F30E0F901EE0FFF1FB3E0220FF4
S1130F50331FBA95E1F7E20FF31FEE5FFE4F1282E3
S1130F6008950F931F93182F823009F475C08823B6
S1130F7019F4E1ECF0E002C0E9ECF0E080818F7755
S1130F808083812F90E0FC01EE0FFF1F03E0880FA8
S1130F90991F0A95E1F7E80FF91FEE5FFE4F808570
S1130FA091850097A9F1212F30E0F901EE0FFF1F81
S1130FB0A3E0220F331FAA95E1F7E20FF31FEE5FC0
S1130FC0FE4F9281212F30E0F901EE0FFF1F63E005
S1130FD0220F331F6A95E1F7E20FF31FEE5FFE4F16
S1130FE084819817A8F4112319F4E0ECF0E002C00E
S1130FF0E8ECF0E0808187FF0BC0112319F4E6ECE4
S1131000F0E002C0EEECF0E06081812F0E940A075C
S1131010212F30E0F901EE0FFF1F43E0220F331FB1
S11310204A95E1F7E20FF31FEE5FFE4F80818823BC
S113103009F059C0112319F4E1ECF0E002C0E9EC25
S1131040F0E08081806880834EC080911B018823FA
S113105019F01092180147C080911E0190911F0150
S1131060009709F440C09091180180911A019817D3
S1131070D0F5809151018823A9F40E94B70B809385
S1131080510110E00BC00E94B20BE02FF0E0319749
S1131090E11BF109EE5AFE4F80831F5F009151015D
S11310A0101788F3A0915101AA23E9F08091180147
S11310B0E0911E01F0911F01E80FF11DA150A093D2
S11310C05101B0E0AE5ABE4F8C91808380911801DB
S11310D08F5F809318019091180180911A019817DD
S11310E009F0BACFB2CF1F910F910895823051F019
S11310F0882319F4E1ECF0E002C0E9ECF0E090811F
S11311009F779083A82FB0E0FD01EE0FFF1F53E0FF
S1131110AA0FBB1F5A95E1F7EA0FFB1FEE5FFE4FC4
S113112071876087682F70E0FB01EE0FFF1F93E06B
S1131130660F771F9A95E1F7E60FF71FEE5FFE4FF4
S11311401282682F70E0FB01EE0FFF1FA3E0660F11
S1131150771FAA95E1F7E60FF71FEE5FFE4F448372
S1131160482F50E0FA01EE0FFF1F63E0440F551FB4
S11311706A95E1F7E40FF51FEE5FFE4F2583823099
S1131180D9F0282F30E0F901EE0FFF1F43E0220FC2
S1131190331F4A95E1F7E20FF31FEE5FFE4F908194
S11311A0992351F4882319F4E1ECF0E002C0E9EC4E
S11311B0F0E0808180688083089521E00E947608B1
S11311C008950E94DD0808951F920F920FB60F92A2
S11311D00BB60F9211242F933F934F935F936F930A
S11311E07F938F939F93AF93BF93EF93FF936091FC
S11311F0C60080E00E940A07FF91EF91BF91AF9172
S11312009F918F917F916F915F914F913F912F911A
S11312100F900BBE0F900FBE0F901F9018951F924A
S11312200F920FB60F920BB60F9211242F933F9388
S11312304F935F936F937F938F939F93AF93BF93DA
S1131240EF93FF936091CE0081E00E940A07FF9123
S1131250EF91BF91AF919F918F917F916F915F912A
S11312604F913F912F910F900BBE0F900FBE0F9097
S11312701F901895882319F4E1ECF0E002C0E9EC22
S1131280F0E08081806280830895882319F4E1EC82
S1131290F0E002C0E9ECF0E080818F7D8083089566
S11312A0282F30E0F901EE0FFF1F93E0220F331FC8
S11312B09A95E1F7E20FF31FEE5FFE4F2681378127
S11312C021153105A1F1282F30E0F901EE0FFF1FA0
S11312D0A3E0220F331FAA95E1F7E20FF31FEE5F9D
S11312E0FE4F4181282F30E0F901EE0FFF1F63E02C
S11312F0220F331F6A95E1F7E20FF31FEE5FFE4FF3
S113130093814917A0F4282F30E0F901EE0FFF1F55
S113131043E0220F331F4A95E1F7E20FF31FEE5F1C
S1131320FE4F9081992319F40E943A0908950E946E
S113133045090895823031F1282F30E0F901EE0F8C
S1131340FF1F53E0220F331F5A95E1F7E20FF31FFB
S1131350EE5FFE4F9081992349F4882319F4E1EC60
S1131360F0E002C0E9ECF0E098E908C0882319F441
S1131370E1ECF0E002C0E9ECF0E098E190830E9437
S1131380500978940895882319F0813041F404C0F9
S113139080E00E949A09089581E00E949A090895C4
S11313A0282F30E0F901EE0FFF1FB3E0220F331FA7
S11313B0BA95E1F7E20FF31FEE5FFE4F60830E94E0
S11313C0C3090895A0E0B0E0E8EEF9E00C94D10D73
S11313D0D82E7A018B010E94C3098D2D823001F130
S11313E0DD2019F4C4ECD0E002C0CCECD0E0C8019C
S11313F0B70128EF3FEF4FEF5FEF0E94890D605078
S1131400734D8E4C9E4FA8019701E4E0220F331FC9
S1131410441F551FEA95D1F70E94990D39832883FB
S1131420CDB7DEB7E7E00C94ED0D0E94E209089514
S1131430282F30E0F901EE0FFF1F73E0220F331F56
S11314407A95E1F7E20FF31FEE5FFE4F4681578175
S11314504115510509F465C0282F30E0F901EE0F5C
S1131460FF1F93E0220F331F9A95E1F7E20FF31F5A
S1131470EE5FFE4F6181282F30E0F901EE0FFF1F70
S1131480A3E0220F331FAA95E1F7E20FF31FEE5FEB
S1131490FE4F9381691708F044C0882319F4E0ECE7
S11314A0F0E002C0E8ECF0E0908195FF3AC08823B8
S11314B019F4A6ECB0E002C0AEECB0E0282F30E0A6
S11314C0F901EE0FFF1F63E0220F331F6A95E1F766
S11314D0E20FF31FEE5FFE4F9181490F511DFA0198
S11314E090819C93282F30E0F901EE0FFF1F93E0C9
S11314F0220F331F9A95E1F7E20FF31FEE5FFE4FC1
S113150091819F5F282F30E0F901EE0FFF1FA3E0C8
S1131510220F331FAA95E1F7E20FF31FEE5FFE4F90
S113152091830E94500908951F93182F823031F03F
S11315300E944509812F0E94180A1DC080911C0138
S113154090911D010097B9F0309117012091190174
S1131550321788F406C0809117018F5F80931701BA
S1131560EDCF20911701820F911DFC0180810E9413
S1131570BE0B882381F71F91089580E00E94940A8E
S113158081E00E94940A82E00E94940A80E00E9412
S1131590B10781E00E94B10782E00E94B10708957B
S11315A00E94BD0A08951F920F920FB60F920BB6B8
S11315B00F9211242F933F934F935F936F937F93D5
S11315C08F939F93AF93BF93EF93FF9380E00E9419
S11315D0180AFF91EF91BF91AF919F918F917F91E5
S11315E06F915F914F913F912F910F900BBE0F9090
S11315F00FBE0F901F9018951F920F920FB60F9267
S11316000BB60F9211242F933F934F935F936F93D5
S11316107F938F939F93AF93BF93EF93FF9381E057
S11316200E94180AFF91EF91BF91AF919F918F9102
S11316307F916F915F914F913F912F910F900BBECE
S11316400F900FBE0F901F9018956F9364E06A95EA
S1131650F1F76F910197C9F708952F928F939F9394
S11316602FB680915B0190915C01019680935B01A0
S113167090935C0190E080915D01891F80935D01EE
S1131680909163019C5F909363018091620180510A
S11316909742C0F0909363018093620180915E0150
S11316A090915F01019680935E0190935F0190E0B9
S11316B080916001891F8093600180916101891F7D
S11316C0809361012FBE9F918F912F901895CF9396
S11316D0DF93EC0105C088EE93E00E94250B21976F
S11316E02097C9F7DF91CF9108950E94670B089561
S11316F0E0E7F0E080818E7F8083A0EBB0E08C9106
S113170083608C93A1EBB0E08C91807F8C938C915F
S113171082608C93B89A80818160808378940895E4
S113172080916401882329F481E0809364010E94FC
S1131730780B08950E94900BE0E7F0E080818E7FA3
S1131740808320915E0130915F014091600150914E
S11317506101808181608083B901CA0108950E947A
S11317609A0B08958FEF64E00E94640D089583E856
S113177067E00E94640D0E94B20B08951F93182F16
S1131780982F9095991F9927991F85E8891B65E0E3
S11317900E94640D812F8F7765E00E94640D1F9174
S11317A00895A7E0B0E0E7EDFBE00C94D60D682FB8
S11317B0CE0101960E94060589819A8180329105A5
S11317C031F480916B009F81892B80936B00898118
S11317D09A818332910531F480916C009F81892B29
S11317E080936C0089819A818632910531F48091CD
S11317F06D009F81892B80936D0089819A81893244
S1131800910531F4809173009F81892B809373003B
S1131810ED81FE8190818F818095892380838FEF74
S1131820809368002796E2E00C94F20DA7E0B0E004
S1131830ECE1FCE00C94D60D682FCE0101960E94D9
S11318400605E981FA8190818F8189232796E2E058
S11318500C94F20D1F920F920FB60F920BB60F92CB
S11318601124FF920F931F932F933F934F935F93F2
S11318706F937F938F939F93AF93BF93EF93FF9354
S113188080916B010E94160CF82E80916D010E94CC
S1131890160C182F80916C010E94160C082F809151
S11318A06E010E94160C4091700160916F0150917D
S11318B0720190917101F41651F0209169013091F7
S11318C06A012F5F3F4F30936A0120936901061725
S11318D051F02091690130916A01215030403093D8
S11318E06A0120936901151751F020916701309125
S11318F068012F5F3F4F3093680120936701891778
S113190051F02091670130916801215030403093AB
S1131910680120936701EF2DF0E0772767FD70954C
S1131920E617F70759F0602F70E0552747FD5095EB
S11319306417750719F021E020936601412F50E0E8
S1131940292F332727FD30954217530769F0482F75
S113195050E020917201332727FD30954217530739
S113196019F091E090936501F0926F01009370017A
S11319701093710180937201FF91EF91BF91AF9128
S11319809F918F917F916F915F914F913F912F9193
S11319901F910F91FF900F900BBE0F900FBE0F90F1
S11319A01F901895A3E0B0E0E8EDFCE00C94D60D90
S11319B080936B0160936C0140936D0120936E01E1
S11319C0F8942B834A8369830E94D10B6981862F03
S11319D00E94D10B4A81842F0E94D10B2B81822F2C
S11319E00E94D10B10926A01109269011092680151
S11319F010926701109266011092650180916B014B
S1131A000E94160C80936F0180916C010E94160C49
S1131A108093700180916D010E94160C8093710176
S1131A2080916E010E94160C809372018FEF8BBB24
S1131A3078942396E2E00C94F20D0E94D20C08955F
S1131A40F8948091690190916A01789408950E94B4
S1131A50200D0895F894809167019091680178941D
S1131A6008950E942A0D08956F9364E06A95F1F732
S1131A706F910197C9F70895A1E0B0E0E2E4FDE0B9
S1131A800C94D50D182F249909C02C9907C02C9AB1
S1131A908EE190E069830E94340D698184B1806A8B
S1131AA084B92698812F837080656C7A862B8CBDCF
S1131AB081E012FF80E08DBD81E090E00E94670B21
S1131AC02196E3E00C94F10D0F931F93082F162F2A
S1131AD00CB406FC04C080E064E00E943C0D0CB42D
S1131AE004FC03C08CB580618CBD0EBD03C00CB476
S1131AF004FE0BC00DB407FEFACF112321F0812F91
S1131B0090E00E94340D8EB501C080E01F910F91CA
S1131B100895DB018F939F930E94BB0DBF91AF91FA
S1131B20A29F800D911DA39F900DB29F900D112433
S1131B300895A1E21A2EAA1BBB1BFD010DC0AA1F0A
S1131B40BB1FEE1FFF1FA217B307E407F50720F022
S1131B50A21BB30BE40BF50B661F771F881F991F9D
S1131B601A9469F760957095809590959B01AC01E6
S1131B70BD01CF0108950E94FD0DA59F900DB49F56
S1131B80900DA49F800D911D112408952F923F92D2
S1131B904F925F926F927F928F929F92AF92BF9279
S1131BA0CF92DF92EF92FF920F931F93CF93DF9325
S1131BB0CDB7DEB7CA1BDB0B0FB6F894DEBF0FBE82
S1131BC0CDBF09942A88398848885F846E847D84CF
S1131BD08C849B84AA84B984C884DF80EE80FD80D1
S1131BE00C811B81AA81B981CE0FD11D0FB6F89447
S1131BF0DEBF0FBECDBFED010895A29FB001B39F1C
S1131C00C001A39F700D811D1124911DB29F700D01
S1131C10811D1124911D0895CF93DF938230910586
S1131C2010F482E090E0E091BD01F091BE0120E06B
S1131C3030E0A0E0B0E0309739F14081518148179D
S1131C405907B8F04817590771F4828193811097A6
S1131C5029F013969C938E9312972CC09093BE01F7
S1131C608093BD0127C02115310531F04217530778
S1131C7018F0A901DB0101C0EF019A01BD01DF01E8
S1131C800280F381E02DD7CF21153105F9F0281B0F
S1131C90390B2430310580F48A819B8161157105EB
S1131CA021F0FB019383828304C09093BE0180934F
S1131CB0BD01FE01329644C0FE01E20FF31F819381
S1131CC0919322503109398328833AC02091BB0172
S1131CD03091BC01232B41F4209122013091230146
S1131CE03093BC012093BB0120912001309121014C
S1131CF02115310541F42DB73EB74091240150918F
S1131D002501241B350BE091BB01F091BC01E217C6
S1131D10F307A0F42E1B3F0B2817390778F0AC010A
S1131D204E5F5F4F2417350748F04E0F5F1F5093E7
S1131D30BC014093BB018193919302C0E0E0F0E0C9
S1131D40CF01DF91CF910895CF93DF93009709F4EA
S1131D5087C0FC01329713821282C091BD01D091D9
S1131D60BE01209781F420813181280F391F809191
S1131D70BB019091BC018217930779F5F093BC01E4
S1131D80E093BB016DC0DE0120E030E0AE17BF0779
S1131D9050F412964D915C9113979D014115510594
S1131DA009F1DA01F3CFB383A28340815181840F17
S1131DB0951F8A179B0771F48D919C911197840F3D
S1131DC0951F02969183808312968D919C9113970F
S1131DD0938382832115310529F4F093BE01E093A6
S1131DE0BD013EC0D9011396FC93EE9312974D9119
S1131DF05D91A40FB51FEA17FB0779F480819181E7
S1131E00840F951F0296D90111969C938E9382811B
S1131E10938113969C938E931297E0E0F0E08A816D
S1131E209B81009719F0FE01EC01F9CFCE010296D7
S1131E3028813981820F931F2091BB013091BC010D
S1131E402817390769F4309729F41092BE011092CB
S1131E50BD0102C013821282D093BC01C093BB01A6
S1131E60DF91CF9108950F931F93CF93DF93EC01EC
S1131E708B01009731F46115710519F480E090E04D
S1131E8038C06EE070E081E090E00E948B11FC01AC
S1131E900097A1F380E883830115110571F013877E
S1131EA0028781E883838091BF019091C001892BCF
S1131EB021F4F093C001E093BF012097C9F0D187CA
S1131EC0C0878381826083838091C1019091C20124
S1131ED0892B71F4F093C201E093C1018091C30195
S1131EE09091C401892B21F4F093C401E093C301C0
S1131EF0CF01DF91CF911F910F910895CF93DF937D
S1131F00CDB7DEB7FE01359661917191AF01809135
S1131F10C1019091C2010E94900FDF91CF91089569
S1131F202F923F924F925F926F927F928F929F92E5
S1131F30AF92BF92CF92DF92EF92FF920F931F93D3
S1131F40CF93DF93CDB7DEB72C970FB6F894DEBFEF
S1131F500FBECDBF7C016B018A01FC011782168282
S1131F60838181FFBDC1CE0101964C01F7019381AC
S1131F70F60193FD859193FF81916F01882309F404
S1131F80ABC1853239F493FD859193FF81916F0143
S1131F90853229F4B70190E00E94C411E7CF512C97
S1131FA0312C20E02032A0F48B3269F030F48032FE
S1131FB059F0833269F420612CC08D3239F08033BA
S1131FC039F4216026C02260246023C0286021C027
S1131FD027FD27C030ED380F3A3078F426FF06C0CD
S1131FE0FAE05F9E300D1124532E13C08AE0389E10
S1131FF0300D1124332E20620CC08E3221F426FDC4
S11320006BC1206406C08C3611F4206802C0883687
S113201041F4F60193FD859193FF81916F01811144
S1132020C1CF982F9F7D9554933028F40C5F1F4F98
S1132030FFE3F9830DC0833631F0833771F08335C4
S113204009F05BC022C0F801808189830E5F1F4FB5
S113205044244394512C540115C03801F2E06F0E0E
S1132060711CF801A080B18026FF03C0652D70E0CB
S113207002C06FEF7FEFC5012C870E94B9112C01BC
S113208083012C852F77222E17C03801F2E06F0EC2
S1132090711CF801A080B18026FF03C0652D70E09B
S11320A002C06FEF7FEFC5012C870E94A7112C019E
S11320B02C852068222E830123FC1BC0832D90E0F5
S11320C048165906B0F4B70180E290E00E94C411AA
S11320D03A94F4CFF50127FC859127FE81915F01A5
S11320E0B70190E00E94C41131103A94F1E04F1A04
S11320F051084114510471F7E5C0843611F0893652
S113210039F5F80127FF07C06081718182819381CD
S11321100C5F1F4F08C060817181882777FD80950F
S1132120982F0E5F1F4F2F76B22E97FF09C0909500
S11321308095709561957F4F8F4F9F4F2068B22E89
S11321402AE030E0A4010E94F611A82EA81844C089
S1132150853729F42F7EB22E2AE030E025C0F22FF5
S1132160F97FBF2E8F36C1F018F4883579F0B4C0EA
S1132170803719F0883721F0AFC02F2F2061B22E9D
S1132180B4FE0DC08B2D8460B82E09C024FF0AC094
S11321909F2F9660B92E06C028E030E005C020E1EC
S11321A030E002C020E132E0F801B7FE07C06081F0
S11321B07181828193810C5F1F4F06C060817181A0
S11321C080E090E00E5F1F4FA4010E94F611A82E3C
S11321D0A818FB2DFF77BF2EB6FE0BC02B2D2E7F2C
S11321E0A51450F4B4FE0AC0B2FC08C02B2D2E7EF8
S11321F005C07A2C2B2D03C07A2C01C0752C24FF2A
S11322000DC0FE01EA0DF11D8081803311F4297E99
S113221009C022FF06C07394739404C0822F867889
S113222009F0739423FD13C020FF06C05A2C7314C5
S113223018F4530C5718732C731468F4B70180E224
S113224090E02C870E94C41173942C85F5CF7314ED
S113225010F4371801C0312C24FF12C0B70180E3F9
S113226090E02C870E94C4112C8522FF17C021FF07
S113227003C088E590E002C088E790E0B7010CC095
S1132280822F867859F021FD02C080E201C08BE2E2
S113229027FD8DE2B70190E00E94C411A51438F423
S11322A0B70180E390E00E94C4115A94F7CFAA9436
S11322B0F401EA0DF11D8081B70190E00E94C41180
S11322C0A110F5CF332009F451CEB70180E290E09C
S11322D00E94C4113A94F6CFF7018681978102C017
S11322E08FEF9FEF2C960FB6F894DEBF0FBECDBFD5
S11322F0DF91CF911F910F91FF90EF90DF90CF90DE
S1132300BF90AF909F908F907F906F905F904F9011
S11323103F902F9008950F931F93CF93DF93869F41
S11323208001879F100D969F100D1124C8010E94F3
S11323300C0EEC01009729F0A80160E070E00E9407
S1132340B211CE01DF91CF911F910F910895FC013D
S11323500590615070400110D8F7809590958E0FCC
S11323609F1F0895DC0101C06D9341505040E0F778
S11323700895FC016150704001900110D8F78095D8
S113238090958E0F9F1F08950F931F93CF93DF9304
S1132390182F092FEB018B8181FD03C08FEF9FEF75
S11323A020C082FF10C04E815F812C813D81421785
S11323B053077CF4E881F9819F012F5F3F4F3983F4
S11323C02883108306C0E885F985812F0995892B18
S11323D029F72E813F812F5F3F4F3F832E83812F2B
S11323E0902FDF91CF911F910F910895FA01AA27A1
S11323F0283051F1203181F1E8946F936E7F6E5F44
S11324007F4F8F4F9F4FAF4FB1E03ED0B4E03CD0F1
S1132410670F781F891F9A1FA11D680F791F8A1FD4
S1132420911DA11D6A0F711D811D911DA11D20D03B
S113243009F468943F912AE0269F11243019305DF5
S11324403193DEF6CF010895462F4770405D4193E6
S1132450B3E00FD0C9F7F6CF462F4F70405D4A3333
S113246018F0495D31FD4052419302D0A9F7EACFFB
S1132470B4E0A6959795879577956795BA95C9F72A
S113248000976105710508959B01AC010A2E06941D
S11324905795479537952795BA95C9F7620F731FD6
S10F24A0841F951FA01D0895F894FFCF21
S11324AC021000000000000000000000000000000A
S11324BC000000000000010000000000000000000B
S11324CC0000C5012000AA0A456E636F64653A00DA
S10D24DC53706565643A256400003E
S9030000FC
